:0C0000000C942F000C9400000C940000E5
:10000C000C9400000C9400000C9400000C94000064
:10001C000C9400000C9400000C9400000C94000054
:10002C000C9400000C9400000C9400000C94000044
:10003C000C9400000C9400000C9400000C94000034
:10004C000C9400000C9400003F065B4F666D7D071E
:10005C007F6FF894EE27ECBBF1E0FBBFEBBFE5BF85
:10006C008DE0A2E0BB27ED938A95E9F780E094E060
:10007C00A0E6ED930197E9F7EFE5EDBFE4E0EEBF05
:10008C00C0E6D1E00C942401AA93EEE0E5BBEB8131
:10009C0026D1EDE0E5BBEA8122D1EBE0E5BBE981BD
:1000AC001ED1E7E0E5BBE8811AD12496089522978A
:1000BC000E94B80109E010E0112362F129E030E060
:1000CC0033232AF149E050E05523F2F0E9E0F0E067
:1000DC00EE83FF83AF81AA23A2F0F80105D1F901C9
:1000EC0003D1FA0101D1E985FA85EC5AFF4FA491AD
:1000FC00CBDFCB990FC0EE81FF813197EE83FF836D
:10010C00E9CF41505040E0CF21503040D9CF015081
:10011C001040D2CF0E94BF01289608951A9310E088
:10012C00143128F4E6D0E0E0E8D01F5FF9CF10E0FE
:10013C00143130F4DED0E6D0A491A6DF1F5FF8CFE7
:10014C0010E0143140F4E0E0EA93DCD0E2D0A4916A
:10015C009BDF1F5FF6CF10E0143138F4D3D0D9D029
:10016C00DDD0A49191DF1F5FF7CF10E0143148F47C
:10017C00E6E5F0E0CED0D2D0D6D0A49185DF1F5FDB
:10018C00F5CF10E0143148F4EBE5F0E0C7D0CBD05C
:10019C00C5D0A49179DF1F5FF5CF10E0143148F47E
:1001AC00E7E5F0E0C0D0BAD0C3D0A4916DDF1F5FFB
:1001BC00F5CF10E0143148F4EAE5F0E0AFD0B8D058
:1001CC00A8D0A49161DF1F5FF5CF10E0143148F483
:1001DC00E7E5F0E0ADD09DD0A1D0A49155DF1F5F35
:1001EC00F5CF10E0143140F4EDE5F0E092D096D06C
:1001FC00E49183D01F5FF6CF10E0143140F4EBE5AF
:10020C00F0E08CD09AD0A0E03FDF1F5FF6CF10E07B
:10021C00143130F4E7E5F0E090D096D01F5FF8CFC2
:10022C0010E0143148F4E5E5F0E0E491EA9361D094
:10023C00A0E02ADF1F5FF5CF1991089510E000E0D0
:10024C00E0E0EABBE7BBEFEFE4BBE1BBEBBBE8BB39
:10025C00E0E0E5BBE2BBC89928C0C89925C0E12FF6
:10026C00F0E042D0E02FF0E03FD06ED0B0990BC060
:10027C00093039F400E0193011F410E001C01F5FAF
:10028C0001C00F5F0CC0B1990EC0003039F409E009
:10029C00103011F419E001C0115001C00150ACE252
:1002AC00B1E00E94AE01D9CF18C0CA990CC0CA994E
:1002BC0009C0E1E7EA93E7E7EA93E0E3EA93A8E30E
:1002CC00E3DEF5CF0AC0CB9902C0F1DE06C0CC99B3
:1002DC0002C024DF02C00DD037D0BDCFFFCFE2BBB0
:1002EC00AAE0B0E00C94AE01EC5AFF4FE491EA9313
:1002FC000895E0E0EA93EA930895EA93E5E5F0E0E7
:10030C00A491C2CEE5E5F0E0E491EA93E6E5F0E0F5
:10031C000895E491EA93EBE5F0E00895E491EA9313
:10032C00E7E5F0E00895E491EA93EAE5F0E008955A
:10033C00E491EA93EDE5F0E00895E491EA93E5E5C4
:10034C00F0E0E491EA930895E0E0EA93A0E09CCE1B
:10035C00109639F0A89580ED97E00197F1F7119779
:10036C00C9F708955A934A933A932A931A930A9386
:10037C0008955D814C813B812A8119810881089502
:00000001FF
