:020000000C945E
:100002002F000C9400000C9400000C9400000C943F
:1000120000000C9400000C9400000C9400000C945E
:1000220000000C9400000C9400000C9400000C944E
:1000320000000C9400000C9400000C9400000C943E
:1000420000000C9400000C9400000C9400000C942E
:1000520000003F065B4F666D7D077F6FF894EE27C9
:10006200ECBBF1E0FBBFEBBFE5BF8DE0A2E0BB273D
:10007200ED938A95E9F780E094E0A0E6ED9301978D
:10008200E9F7EFE5EDBFE4E0EEBFC0E6D1E00C94A6
:100092004A00EFEFEABBE0E0EBBBEFEFE7BBE0E0EB
:1000A200E8BBC59AECE5F0E004900BBAC09A38D0F0
:1000B200EBE5F0E004900BBAC09832D0EAE5F0E04C
:1000C20033D0E9E5F0E030D0E8E5F0E02DD0E7E527
:1000D200F0E02AD0E6E5F0E027D0E5E5F0E024D034
:1000E200E4E5F0E021D0E0E0EBBBC59820D0C79A70
:1000F200E9E5F0E019D0E8E5F0E016D0E7E5F0E058
:1001020013D0E6E5F0E010D0E5E5F0E00DD0E4E54F
:10011200F0E00AD0E0E0EBBBC79809D0C2CFFFCF36
:10012200A8EEB3E00C949F0004900BBAF9CFC69AE4
:10013200A0EDB7E00E949F00C6980895109639F08E
:1001420080ED97E00197F1F7A8951197C9F7089507
:00000001FF
