:080000000C942F000C94000089
:100008000C9400000C9400000C9400000C94000068
:100018000C9400000C9400000C9400000C94000058
:100028000C9400000C9400000C9400000C94000048
:100038000C9400000C9400000C9400000C94000038
:100048000C9400000C9400000C9400003F065B4FD9
:10005800666D7D077F6FF894EE27ECBBF1E0FBBF80
:10006800EBBFE5BF8DE0A2E0BB27ED938A95E9F7EA
:1000780080E094E0A0E6ED930197E9F7EFE5EDBFA6
:10008800E4E0EEBFC0E6D1E00C944A00EFEFE7BB36
:10009800E0E0E8BBEFEFE4BBE0E0E5BBECE5F0E077
:1000A800049005BAC49AC79A18D0C79807E010E018
:1000B800112322F016D001501040FACFC49817D05F
:1000C800C69A05E010E0112322F00BD00150104031
:1000D800FACFC6980CD0E2CFFFCFA8EEB3E00C94CD
:1000E8008200F801EC5AFF4F049005BAF6CFC59A82
:1000F800A0EDB7E00E948200C5980895109639F0E7
:10010800A89580ED97E00197F1F71197C9F7089541
:00000001FF
