:0E0000000C9431000C9400000C9400000C9441
:10000E0000000C9400000C9400000C9400000C9462
:10001E0000000C9400000C9400000C9400000C9452
:10002E0000000C9400000C9400000C9400000C9442
:10003E0000000C9400000C9400000C9400000C9432
:10004E0000000C9400003F065B4F666D7D077F6FCE
:10005E0071773038F894EE27ECBBF1E0FBBFEBBFC5
:10006E00E5BF8DE0A2E0BB27ED938A95E9F780E02E
:10007E0094E0A0E6ED930197E9F7EFE5EDBFE4E03C
:10008E00EEBFC0E6D1E00C944C0010E000E030E092
:10009E0020E050E0EFEFE1BBE0E0E2BBEFEFE4BBCE
:1000AE00E0E0E5BBEABBEFEFEBBBC89926C030E062
:1000BE003A3050F4EBE0E5BBE12F42D1E7E0E5BB8F
:1000CE00E02F3ED13F5FF4CFCD990AC0093039F40D
:1000DE0000E0193011F410E001C01F5F01C00F5F86
:1000EE00CF990AC0003039F409E0103011F419E04C
:1000FE0001C0115001C00150D8CFCA991DC030E0C7
:10010E003233C8F4EEE0E5BBEEE5F0E022D1EDE0EF
:10011E00E5BBEFE5F0E01DD1EBE0E5BBE0E6F0E09E
:10012E001ED1E7E0E5BBE1E6F0E013D1E1E6F0E059
:10013E0016D13F5FE5CF02C0EFEFE5BBCB993BC0D9
:10014E0010E01A30B8F500E00A3068F530E03A30C9
:10015E0018F520E02A30C8F450E0593190F4EEE062
:10016E00E5BBE12F02D1EDE0E5BBE02FFED0EBE0E9
:10017E00E5BBE32FFAD0E7E0E5BBE22FF6D05F5FF9
:10018E00ECCFCB9902C02F5FE5CFCB9B03C0EFEF37
:10019E00E5BB02C03F5FDBCFCB9B03C0EFEFE5BB00
:1001AE0002C00F5FD1CFCB9B03C0EFEFE5BB02C008
:1001BE001F5FC7CFC3CFCC99C1C050E0543618F4DF
:1001CE00DED05F5FFBCFCC9B03C0EFEFE5BBB6C0CD
:1001DE0050E0523320F4D8D0DCD05F5FFACFCC9B06
:1001EE0003C0EFEFE5BBAAC050E0513230F4D6D0D9
:1001FE00DAD0E7E0DDD05F5FF8CFCC9B03C0EFEF46
:10020E00E5BB9CC050E0593140F4D6D0DAD0EBE0DB
:10021E00CFD0E7E0DBD05F5FF6CFCC9B03C0EFEF34
:10022E00E5BB8CC050E0593140F4D4D0EDE0C0D0E5
:10023E00EBE0CCD0AED05F5FF6CFCC9B03C0EFEF40
:10024E00E5BB7CC050E0593140F4EEE0B1D0EDE0BA
:10025E00BDD0A9D094D05F5FF6CFCC9B03C0EFEF9B
:10026E00E5BB6CC050E0593138F4EEE0AFD0A9D008
:10027E008BD0B5D05F5FF7CFCC9B03C0EFEFE5BB64
:10028E005DC050E0593130F4A5D088D0ADD0A7D0A4
:10029E005F5FF8CFCC9B03C0EFEFE5BB4FC050E0E4
:1002AE00593138F489D0A5D09FD0E7E0A7D05F5F51
:1002BE00F7CFCC9B03C0EFEFE5BB40C050E0593108
:1002CE0038F4A0D096D0EBE099D063D05F5FF7CF33
:1002DE00CC9B03C0EFEFE5BB31C050E0593130F499
:1002EE0091D0EDE08BD05FD05F5FF8CFCC9B03C099
:1002FE00EFEFE5BB23C050E0513228F4EEE07ED0A4
:10030E0060D05F5FF9CFCC9B03C0EFEFE5BB16C0AB
:10031E0050E0523318F45ED05F5FFBCFCC990EC025
:10032E0050E0543640F4EFE0E5BBAAE0B0E00E94A6
:10033E000E025F5FF6CFCC9901C03DCFB6CEFFCF98
:10034E00F0E0EC5AFF4F049002BAAAE0B0E00C9431
:10035E000E02049002BAA1E0B0E00C940E020490DA
:10036E0002BAAAE0B0E00C940E02F0E0A9E0B0E010
:10037E000E941802EA1BFB0BEC5AFF4FF0CFE7E08E
:10038E00E5BBE5E5F0E0EBCFEBE0E5BBE5E5F0E066
:10039E00E6CFE7E0E5BBE6E5F0E0E1CFEDE0E5BB7B
:1003AE00E5E5F0E0DCCFEBE0E5BBE6E5F0E0D7CF4E
:1003BE00E5BBEBE5F0E0D3CFEEE0E5BBE5E5F0E045
:1003CE00CECFEDE0E5BBE6E5F0E0C9CFE5BBE7E576
:1003DE00F0E0C5CFEEE0E5BBE6E5F0E0C0CFE7E04C
:1003EE00E5BBEDE5F0E0BBCFEBE0E5BBEDE5F0E026
:1003FE00B6CFEDE0E5BBEDE5F0E0B1CFE5BBE4E572
:10040E00F0E0ADCFEEE0E5BBEDE5F0E0A8CF109665
:10041E0039F080ED97E00197F1F7A8951197C9F79C
:10042E0008951B2EBF2FF12D1A2EAE2FE12D0895FC
:00000001FF
