:040000000C942A0032
:100004000C9400000C9400000C9400000C9400006C
:100014000C9400000C9400000C9400000C9400005C
:100024000C9400000C9400000C9400000C9400004C
:100034000C9400000C9400000C9400000C9400003C
:100044000C9400000C9400000C9400000C9400002C
:10005400F894EE27ECBBF1E0FBBFEBBFE5BF8DE00E
:10006400A2E0BB27ED938A95E9F780E094E0A0E64F
:10007400ED930197E9F7EFE5EDBFE4E0EEBFC0E6ED
:10008400D1E00C948300AE9A45D0AE980895EFE782
:10009400E2BBE7E0E2BB3ED0EDE7E2BB3BD0EDE6FE
:1000A400E2BB38D0E6E6E2BB35D0EFE4E2BB32D0C7
:1000B400EBE5E2BB2FD0E6E0E2BB2CD0E0E0E2BB14
:1000C4000895EDE6E2BBE6E6E2BB24D0EFE4E2BB52
:1000D40021D0EBE5E2BB1ED0E6E0E2BB1BD00895E5
:1000E400A89AD1DFD4DFA8980895A99AA0EDB7E023
:1000F4000E949000A9980895AA9AC5DFE2DFAA9801
:100104000895EFEFE1BBE4BBEBDFEFDFF5DFEDDFFD
:10011400FBCFFFCFA8EEB3E00C949000109639F01B
:10012400A89580ED97E00197F1F71197C9F7089525
:00000001FF
