:0A0000000C9432000C9400000C94E4
:10000A0000000C9400000C9400000C9400000C9466
:10001A0000000C9400000C9400000C9400000C9456
:10002A0000000C9400000C9400000C9400000C9446
:10003A0000000C9400000C9400000C9400000C9436
:10004A0000000C9400000C9400003F065B4F666DA4
:10005A007D077F6F000E0D0B0700F894EE27ECBBAF
:10006A00F1E0FBBFEBBFE5BF8DE0A2E0BB27ED935C
:10007A008A95E9F780E094E0A0E6ED930197E9F725
:10008A00EFE5EDBFE4E0EEBFC0E6D1E00C944D0031
:10009A0010E000E0E0E0EABBEFEFEBBBE4BBE0E03E
:1000AA00E5BBEFEFE1BBE0E0E2BBEFEFE5BBC899F0
:1000BA0024C07AD1E12F7DD185D1E02F7AD1CE9992
:1000CA000BC0093039F400E0193011F410E001C016
:1000DA001F5F01C00F5F0CC0CF990EC0003039F40A
:1000EA0009E0103011F419E001C0115001C00150AB
:1000FA00A8ECB0E00E944302DACFC9990DC067D1DB
:10010A00E1E76AD151D1E7E767D15CD1E0E364D195
:10011A0068D1E8E361D1F1CFCA9960C02A97E9E0D2
:10012A00F0E0E887F987A985AA230AF455C0E9E02F
:10013A00F0E0EE83FF83AF81AA230AF445C0E9E029
:10014A00F0E0EC83FD83AD81AA23B2F1E9E0F0E0AF
:10015A00EA83FB83AB81AA233AF1E0E0E883E983EF
:10016A00A881B9811F97C4F432D1E885F9853ED1B7
:10017A001BD1EE81FF813AD125D1EC81FD8136D1A7
:10018A0030D1EA81FB8132D1CA9906C0E881F9816E
:10019A003196E883F983E4CFCA9906C0EA81FB81E4
:1001AA003197EA83FB83D6CFCA9906C0EC81FD81D9
:1001BA003197EC83FD83C7CFCA9906C0EE81FF81D0
:1001CA003197EE83FF83B7CFCA9906C0E885F985D0
:1001DA003197E887F987A7CF2A969ECFCB99E2C0B5
:1001EA002197E0E0E883A881A73340F4CB9906C0C1
:1001FA00F8D004D1E881EF5FE883F5CFE0E0E88347
:10020A00A881A23350F4CB9908C0DCD0F7D0E9D04A
:10021A00FDD0E881EF5FE883F3CFE0E0E883A881CF
:10022A00AD3260F4CB990AC0BFD0E8D0CBD0EED0C3
:10023A00D8D0F4D0E881EF5FE883F1CFE0E0E8833B
:10024A00A881A83270F4CB990CC0C1D0D7D0ACD059
:10025A00DDD0B8D0E3D0C5D0E9D0E881EF5FE8833C
:10026A00EFCFE0E0E883A881A83270F4CB990CC004
:10027A00AED0CCD099D0D2D0A5D0D8D0B2D0DED002
:10028A00E881EF5FE883EFCFE0E0E883A881A83256
:10029A0070F4CB990CC09BD0C1D086D0C7D092D075
:1002AA00CDD09FD0D3D0E881EF5FE883EFCFE0E0F5
:1002BA00E883A881A83270F4CB990CC088D0B6D054
:1002CA0073D0BCD07FD0C2D08CD0C8D0E881EF5FC9
:1002DA00E883EFCFE0E0E883A881A83270F4CB99F5
:1002EA000CC075D0ABD060D0B1D06CD0B7D079D0BB
:1002FA009DD0E881EF5FE883EFCFE0E0E883A88153
:10030A00A83270F4CB990CC062D0A0D04DD0A6D040
:10031A0059D08CD066D0AAD0E881EF5FE883EFCFBE
:10032A00E0E0E883A881A83270F4CB990CC04FD0E2
:10033A0095D03AD07BD046D099D053D077D0E881A7
:10034A00EF5FE883EFCFE0E0E883A881AD3260F4A5
:10035A00CB990AC03CD06AD027D088D033D066D097
:10036A00E881EF5FE883F1CFE0E0E883A881A23378
:10037A0050F4CB9908C02BD079D016D057D0E88149
:10038A00EF5FE883F3CFE0E0E883A881A73340F486
:10039A00CB9906C01CD04AD0E881EF5FE883F5CF3D
:1003AA0021961CCF82CEFFCFE0E6F0E0049005BA9A
:1003BA000895F0E0EC5AFF4F049002BAA1E0B0E0D1
:1003CA000C944302E1E6F0E0049005BA0895EFE5E3
:1003DA00F0E0049005BA0895E2BBA2E0B0E00C9404
:1003EA004302E2E6F0E0049005BA0895EC5AFF4FA2
:1003FA00049002BAA3E0B0E00C944302E5E5F0E011
:10040A00049002BAA4E0B0E00C944302E6E5F0E0FE
:10041A00049002BAA4E0B0E00C944302EBE5F0E0E9
:10042A00049002BAA4E0B0E00C944302E7E5F0E0DD
:10043A00049002BAA4E0B0E00C944302EAE5F0E0CA
:10044A00049002BAA4E0B0E00C944302ECE5F0E0B8
:10045A00049002BAA4E0B0E00C944302E8E5F0E0AC
:10046A00049002BAA4E0B0E00C944302E4E5F0E0A0
:10047A00049002BAA4E0B0E00C944302109639F05A
:10048A00A89580ED97E00197F1F71197C9F70895BC
:00000001FF
